:020000040800F2
:1000000000340020950200089D0200089F020008AD
:10001000A1020008A3020008A502000800000000D9
:10002000000000000000000000000000A70200081F
:10003000A902000800000000AB020008AD020008A1
:10004000AF020008AF020008AF020008AF020008CC
:10005000AF020008AF020008AF020008AF020008BC
:10006000AF020008AF020008AF020008AF020008AC
:10007000AF020008AF020008AF020008AF0200089C
:10008000AF020008AF020008AF020008AF0200088C
:10009000AF020008AF020008AF020008AF0200087C
:1000A000AF020008AF020008AF020008AF0200086C
:1000B000C1290008AF020008AF020008AF02000823
:1000C000AF020008AF020008AF020008AF0200084C
:1000D000AF02000889480008AF020008B9480008CC
:1000E000AF020008AF020008AF02000800F002F8FB
:1000F00000F0B8F80AA090E8000C82448344AAF10A
:100100000107DA4501D100F0ADF8AFF2090EBAE807
:100110000F0013F0010F18BFFB1A43F0010318473B
:10012000E86E0000086F000010F8013B0A4413F06D
:10013000030408BF10F8014B1D1108BF10F8015B44
:10014000641E05D010F8016B641E01F8016BF9D133
:10015000002D15D010F8014B03F00C030C2BA1EB74
:1001600004040ABF10F8013BA4EB8314A4EB03249E
:1001700005F1010314F8016B5B1E01F8016BF9D561
:10018000914238BF10F8013BD1D3704700230024BF
:1001900000250026103A28BF78C1FBD8520728BF97
:1001A00030C148BF0B6070476E2904F05787702933
:1001B00005F09980662906F0F384652906F0F0843D
:1001C000672906F0ED84612906F0EC8403681B0AB8
:1001D00028BF41F08001692904F00487642904F0F4
:1001E0000187752904F0FE866F2905F0278078299C
:1001F00005F06580E92904F0C187E42904F0BE8791
:10020000F52904F0BB87EF2905F02480F82905F0D3
:1002100064800368DB0928BF41F08001632905F091
:10022000A585732905F0AA85E32905F0B585F3298D
:1002300005F0BA85002070471FB59DE8030004F063
:1002400039FE05F011FE04000020002106F052FBEB
:10025000401C60600020002106F036FBE0601FBDFE
:1002600010B510BD05F0D3FD1146FFF7E5FF04F012
:1002700080FC05F0ABFE03B4FFF7F2FF03BC05F012
:100280001DF900004FF07300A0F101000028FBD120
:10029000704700000948804709480047FEE7FEE72D
:1002A000FEE7FEE7FEE7FEE7FEE7FEE7FEE7FEE726
:1002B00004480549054A064B7047000067270008B7
:1002C000ED000008002E0020003400200030002047
:1002D0000030002031490143314A1160704770B548
:1002E000002100230F22C47804B32D4C246804F4A9
:1002F000E064C4F5E064210AC1F10403CA40447813
:1003000004FA03F18478144021430901254C06784E
:10031000A155047804F01F050124AC4005786D1147
:10032000AD0005F1E025C5F8004109E0047804F0CE
:100330001F050124AC401C4D0678761145F8264077
:1003400070BD1A4A0A400243154B1B1F1A607047C2
:1003500039B1134A121D12680243114B1B1D1A605A
:1003600006E00F4A121D126882430D4B1B1D1A60D6
:100370007047042808D14FF0E021096941F00401D9
:100380004FF0E022116107E04FF0E021096921F010
:1003900004014FF0E0221161704700000000FA05EF
:1003A0000CED00E000E400E080E100E080FFFF1FD2
:1003B00010B50446FA48844208D10121401500F0E6
:1003C0007FFE0021601500F07BFE17E0F5488442B7
:1003D00008D10121001500F073FE0021201500F066
:1003E0006FFE0BE0F048844208D10121C80300F001
:1003F00067FE00214FF4004000F062FE10BD30B5F2
:100400000246002000235068E84C20400D790C681B
:1004100044EA0524204350609068E54C2040D1E92F
:1004200002542C434D7944EA450420439060D06A3D
:1004300020F470000C7C641EE4B2234340EA0350B5
:10044000D06230BD00210160017141718160C160E5
:1004500001210174704721B1826842F0010282607B
:1004600003E0826822F001028260704721B1826855
:1004700042F48072826003E0826822F480728260BB
:10048000704710B50023CBB21AB144681C434460D6
:1004900002E044689C43446010BD816841F008015B
:1004A00081607047014600208A6802F008020AB1A4
:1004B000012000E000207047816841F00401816064
:1004C0007047014600208A6802F004020AB1012048
:1004D00000E00020704721B1826842F4A0028260EF
:1004E00003E0826822F4A002826070470146002087
:1004F0008A6802F480020AB1012000E000207047FF
:1005000010B50A4600210023416821F46041531EC2
:1005100041EA4331416010BD21B1426842F40062BA
:10052000426003E0426822F4006242607047F0B526
:1005300004460D4600200021092D11DDE068A5F1DB
:100540000A0606EB4607072606FA07F18843A5F1D7
:100550000A0606EB460603FA06F10843E0600CE0E3
:10056000206905EB4507072606FA07F1884305EBE6
:10057000450603FA06F108432061072A0FDA606B8B
:10058000561E06EB86071F2606FA07F18843561EFD
:1005900006EB860605FA06F10843606322E00D2AA1
:1005A0000FDA206BD61F06EB86071F2606FA07F127
:1005B0008843D61F06EB860605FA06F1084320633A
:1005C00010E0E06AA2F10D0606EB86071F2606FA88
:1005D00007F18843A2F10D0606EB860605FA06F13F
:1005E0000843E062F0BD21B1826842F4801282606B
:1005F00003E0826822F48012826070470146C86C72
:1006000080B2704766484C300068704721B142683C
:1006100042F48062426003E0426822F480624260F9
:10062000704721B1426842F48052426003E0426860
:1006300022F48052426070470A460021816821F40A
:10064000E04111438160704721B1826842F4004269
:10065000826003E0826822F400428260704721B128
:10066000826842F40212826003E0826822F402127D
:1006700082607047014600208A6802F400120AB1C5
:10068000012000E000207047F0B504461546002028
:1006900000220026092911DDE068A1F10A0707EB15
:1006A000470C072707FA0CF29043A1F10A0707EB62
:1006B000470703FA07F21043E0600CE0206901EB02
:1006C000410C072707FA0CF2904301EB410703FAAC
:1006D00007F210432061A06BC0F30156EF1C06F136
:1006E000010CA7EB0C0707EB870C1F2707FA0CF28E
:1006F0009043EF1C06F1010CA7EB0C0707EB8707F3
:1007000001FA07F21043A063F0BD10B50A460021BC
:100710000023816B21F44011531E41EA0351816390
:1007200010BD08B5002300930090009B0B4400937C
:10073000009B1A6008BD08B5024600200090009298
:1007400001F12800009B184400900098006880B2D6
:1007500008BD0A4600214168164B1940114341600B
:1007600070474162826270470A460021416821F069
:100770001F0111434160704740B1094908310968C0
:1007800041F40001064A0832116007E004490831CB
:10079000096821F40001024A083211607047000024
:1007A0000024014000280140003C0140FFFEF0FF12
:1007B000FDF7F1FFFFFD3FFF0246002013680B40ED
:1007C0000BB1012000E000207047CA43026070476F
:1007D00070B502460020002300240B125568CEB2EB
:1007E00005EA060415681D4015B10CB1012000E0B2
:1007F000002070BD00220A12D3430360704700003E
:1008000001684FF6FE7211400160002101604160F5
:100810008160C1608D49884208D18C490839496896
:1008200041F00F01894A083A51608AE08749143142
:10083000884208D185490839496841F0F001834A66
:10084000083A51607DE081492831884208D17F49CA
:100850000839496841F470617C4A083A516070E097
:100860007A493C31884208D178490839496841F4CD
:100870007041764A083A516063E0744950318842C9
:1008800008D172490839496841F470216F4A083A21
:10089000516056E06D496431884208D16B4908398E
:1008A000496841F47001694A083A516049E0674972
:1008B0007831884208D165490839496841F070614A
:1008C000624A083A51603CE06149884206D1011F02
:1008D000096841F00F01021F116032E05C491431D8
:1008E000884208D15A49091F096841F0F001584A65
:1008F000121F116025E056492831884208D1544919
:10090000091F096841F47061514A121F116018E013
:100910004F493C31884208D14D49091F096841F4CB
:1009200070414B4A121F11600BE049495031884217
:1009300007D14749091F096841F47021444A121F31
:100940001160704710B50022026847F6F0739A43B1
:100950000C6A8B6823430C6923434C6923438C69DD
:100960002343CC6923434C6A23438C6A23431A43B1
:100970000260CB6843600B6883604B68C36010BD46
:100980000021016041608160C1600161416181615C
:10099000C161016241628162704721B1026842F027
:1009A0000102026004E002684FF6FE731A40026022
:1009B00070471AB103680B43036002E003688B437E
:1009C00003607047416070470146486880B27047D5
:1009D00001460020002201F080531BB11C4B083B54
:1009E0001A6802E0194B083B1A6802EA01030BB1CE
:1009F000012000E00020704700F0805119B1144937
:100A0000091F086002E01149083948607047014633
:100A10000020002201F080531BB10D4B083B1A68E7
:100A200002E00A4B083B1A6802EA01030BB10120FD
:100A300000E00020704700F0805119B10449091FFF
:100A4000086002E001490839486070470800024028
:100A50000804024010B50446CC48844208D1012164
:100A6000042000F02DFB0021042000F029FB46E0CB
:100A7000C748844208D10121082000F021FB002151
:100A8000082000F01DFB3AE0C248844208D1012151
:100A9000102000F015FB0021102000F011FB2EE0CB
:100AA000BD48844208D10121202000F009FB00212B
:100AB000202000F005FB22E0B848844208D1012143
:100AC000402000F0FDFA0021402000F0F9FA16E085
:100AD000B348844208D10121802000F0F1FA0021BE
:100AE000802000F0EDFA0AE0AE48844207D10121EF
:100AF000801500F0E5FA0021A01500F0E1FA10BD24
:100B000010B50121084600F0DBFA0021012000F0B9
:100B1000D7FA10BD2DE9F04102460025002600203D
:100B200000230024002791F803C00CF00F0591F872
:100B300003C00CF0100CBCF1000F03D091F802C000
:100B40004CEA050591F800C0BCF1000F31D01468E3
:100B500000202BE04FF0010C0CFA00F3B1F800C0BC
:100B60000CEA03069E4220D183004FF00F0C0CFAD2
:100B700003F7BC4305FA03FC4CEA040491F803C0F4
:100B8000BCF1280F06D14FF0010C0CFA00FCC2F8A2
:100B900014C00AE091F803C0BCF1480F05D14FF032
:100BA000010C0CFA00FCC2F810C0401C0828D1D37C
:100BB0001460B1F800C0BCF1FF0F34DD54680020B0
:100BC0002EE000F1080C4FF0010808FA0CF3B1F820
:100BD00000C00CEA03069E4221D183004FF00F0CA7
:100BE0000CFA03F7BC4305FA03FC4CEA040491F841
:100BF00003C0BCF1280F05D100F1080C08FA0CF86D
:100C0000C2F8148091F803C0BCF1480F07D100F17D
:100C1000080C4FF0010808FA0CF8C2F81080401CCC
:100C20000828CED35460BDE8F0814FF6FF710180F3
:100C3000022181700421C170704702460020936830
:100C40000B400BB1012000E000207047014688688E
:100C500080B2704702460020D3680B400BB10120E0
:100C600000E0002070470146C86880B2704701610B
:100C70007047416170470AB1016100E0416170470E
:100C8000C16070474FF480320A43826181618261A2
:100C900082698269704702460020434B18684FF60C
:100CA0008073184040EA021008433F4B18607047B9
:100CB0003E49C8617047F0B50A4600230024002170
:100CC000002500F00046B6F1004F02D1364EF16922
:100CD00001E0354E7168C0F3034583B200F440165D
:100CE000B6F5401F08D121F070612F4E766826F0CE
:100CF00070662D4F7E6012E000F48016B6F5801FFE
:100D000006D1032606FA05F4A14341F0706106E01E
:100D1000460D360103FA06F6B14341F0706122B187
:100D2000460D360103FA06F6314300F00046B6F1EF
:100D3000004F02D11C4EF16101E01B4E7160F0BD0D
:100D400030B500228B071C0F0F2303FA04F2164B59
:100D500008338C1053F824309343134C08348D100F
:100D600044F8253023468C1053F824308C07240F88
:100D700000FA04F423430C4C08348D1044F8253059
:100D800030BD0A49DC3108607047000000080140AE
:100D9000000C014000100140001401400018014007
:100DA000001C0140002001400000014000002042E2
:100DB000DF48006840F00100DD49086008464068EF
:100DC000DC490840DA49486008460068DA490840CA
:100DD000D74908600846006820F48020086008466B
:100DE000406820F4FE0048604FF41F0088607047A0
:100DF000CF49096821F48031CD4A11601146096854
:100E000021F480211160B0F5803F03D0B0F5802F30
:100E10000ED106E0C649096841F48031C44A116028
:100E200007E0C349096841F4A021C14A116000E00C
:100E300000BF00BF704710B501460022002300200C
:100E40004A11012A02D1BA4C236806E0022A02D1D3
:100E5000B74C236A01E0B64C636A01F01F0201241B
:100E600094401C400CB1012000E0002010BD38B5BA
:100E7000002000900024002500BF3120FFF7DBFF99
:100E800005460098401C00900098B0F5A06F01D076
:100E9000002DF2D03120FFF7CEFF08B1012400E091
:100EA0000024204638BD01460020A14A106820F0E9
:100EB000F80040EAC10010607047A0490860704720
:100EC000024600209A4B586820F47C1042EA010345
:100ED0001843974B58607047984908667047014619
:100EE0000020934A506820F0030008435060704788
:100EF0008F48406800F00C007047014600208C4A83
:100F0000506820F0F0000843506070470146002010
:100F1000874A506820F4E0600843506070470146FB
:100F20000020834A506820F4605040EAC1005060BD
:100F3000704729B17E4A527A02437D4B5A7204E0CF
:100F40007B4A527A82437A4B5A7270477B49D83136
:100F50000860704701460020754A506820F4404000
:100F60000843506070470021714A20321170704A66
:100F700082F82010012802D004280AD104E00121BF
:100F80006B4A2032117005E00521694A2032117048
:100F900000E000BF00BF70476949086070476449BE
:100FA000096A0143624A1162704765494439086021
:100FB000704730B500210022002400235C4D6D688D
:100FC00005F00C0121B1042905D0082923D105E041
:100FD0005C4D056022E05B4D05601FE0544D6D687F
:100FE00005F47012524D6D6805F48034022505EB4E
:100FF00092421CB9544D554305600BE04C4D6D6851
:1010000005F400351DB1504D5543056002E04D4DCE
:101010005543056002E04B4D056000BF00BF444DE5
:101020006D6805F0F0010909484D6B5C0568DD400D
:1010300045603F4D6D6805F4E061090A434D6B5C06
:101040004568DD4085603A4D6D6805F46051C90A18
:101050003E4D6B5C4568DD40C560354D6D6805F4FF
:101060004041890B3A4D6B5CC568B5FBF3F50561F2
:1010700030BD29B12E4A526902432D4B5A6104E01A
:101080002B4A526982432A4B5A61704729B1284A38
:1010900092690243264B9A6104E0254A9269824391
:1010A000234B9A61704729B1214AD2690243204BF0
:1010B000DA6104E01E4AD26982431D4BDA6170474F
:1010C00029B11B4AD2680243194BDA6004E0184A7E
:1010D000D2688243164BDA60704729B1144A12690C
:1010E0000243134B1A6104E0114A12698243104B08
:1010F0001A61704712494039086070470F49C86447
:1011000070470B49C87170470948406A40F08070C9
:1011100007494862704701460020054A92680A4024
:101120000AB1012000E00020704701498872704731
:10113000001002400000FFF8FFFFF6FE00004242F0
:101140008004424200127A0000093D0000000020A5
:101150001000002010B50446BE48844208D1012189
:101160008014FFF7ADFF0021A014FFF7A9FF16E0E0
:10117000B948844208D101210014FFF7AEFF0021D5
:101180002014FFF7AAFF0AE0B448844207D10121E6
:10119000C013FFF7A2FF0021E013FFF79EFF10BD71
:1011A00010B50022028802F441520B884C88234378
:1011B0008C882343CC8823430C8923434C892343C5
:1011C0008C892343CC8923431A430280838B4FF2BB
:1011D000FF74234083830B8A038210BD2DE9F04FF7
:1011E00085B005460C464FF0000902274FF0000875
:1011F0004FF0010B0026B246A88B4FF24001084089
:10120000A88302202884B5F81C90A068022801D188
:1012100000BF38E0A08810B94FF0010B01E04FF09B
:10122000020B8D48854200D100E000BF6846FFF701
:10123000C0FEDDF800A0E088B0F5007F0AD14FEADB
:101240001A2000EB80004000A168B0FBF1F0401DC7
:1012500086B20BE04FEA4B10BAFBF0F000EB8000D7
:101260004000A168B0FBF1F0401D86B20A20B6FB39
:10127000F0F606F00108A6EB0800C0F34F074FF6A2
:10128000FF7000EA0828022F01DBFF2F02DD022792
:101290004FF00008E08840EA080038432884A0881E
:1012A000A1890843618808432188084340F400600D
:1012B00040EA0909A5F81C9005B0BDE8F08F0021AF
:1012C000018041808180C180018141818181C18112
:1012D0000721018270470021018041808180C18007
:1012E0000221816000218181704721B1028842F092
:1012F0004002028004E002884FF6BF731A40028069
:10130000704721B1828B42F48062828304E0828B39
:101310004FF6FF331A408283704730B50024002314
:101320000C110125A540ABB21AB185881D438580FB
:1013300002E085889D43858030BD1AB183880B43C8
:10134000838002E083888B4383807047818170476C
:101350000146888970474FF6FF62914204D00288A7
:1013600042F48072028004E002884FF6FF631A4064
:101370000280704721B1828842F00402828004E03A
:1013800082884FF6FB731A408280704702884FF2C2
:10139000FF731A40028002880A4302807047018866
:1013A00041F480510180704721B1028842F400521B
:1013B000028004E002884DF6FF731A4002807047F5
:1013C00002460020012901D0108B00E0908A70476E
:1013D0000146088A7047B1F5804F04D1028842F473
:1013E0008042028004E002884BF6FF731A400280BC
:1013F00070470246002013890B400BB1012000E02A
:1014000000207047CA4302817047F0B502460020B1
:1014100000240023002501F00F070126BE40B4B2CE
:101420000B1101269E40B3B2968806EA0305168981
:10143000264016B10DB1012000E00020F0BD10B52E
:10144000002201F00F040123A3409AB2D343038189
:1014500010BD00000030014000380040003C00405A
:1014600010B50446FE48844208D10121C014FFF79C
:1014700027FE0021E014FFF723FEC4E0B4F1804F03
:1014800008D101210846FFF728FE00210120FFF7BF
:1014900024FEB8E0F348844208D101210220FFF77E
:1014A0001CFE00210220FFF718FEACE0EE4884424B
:1014B00008D101210420FFF710FE00210420FFF7CE
:1014C0000CFEA0E0E948844208D101210820FFF782
:1014D00004FE00210820FFF700FE94E0E448844267
:1014E00008D101211020FFF7F8FD00211020FFF79F
:1014F000F4FD88E0DF48844208D101212020FFF775
:10150000ECFD00212020FFF7E8FD7CE0DA48844272
:1015100008D101214014FFF7D3FD00216014FFF72B
:10152000CFFD70E0D548844209D10121C804FFF7FE
:10153000C7FD00214FF40020FFF7C2FD63E0D04853
:10154000844209D101210805FFF7BAFD00214FF4BB
:101550008010FFF7B5FD56E0CA48844209D1012149
:101560004805FFF7ADFD00214FF40010FFF7A8FD7F
:1015700049E0C548844208D101214020FFF7ADFD74
:1015800000214020FFF7A9FD3DE0C048844208D17A
:1015900001218020FFF7A1FD00218020FFF79DFDA4
:1015A00031E0BB48844208D101218015FFF795FD49
:1015B0000021A015FFF791FD25E0B648844209D12E
:1015C00001210804FFF77CFD00214FF48030FFF774
:1015D00077FD18E0B048844209D101214804FFF7A3
:1015E0006FFD00214FF40030FFF76AFD0BE0AB48C0
:1015F000844208D101218804FFF762FD00214FF4E5
:101600008020FFF75DFD10BD00220288944B9842B8
:101610000ED0994B98420BD0B0F1804F08D0914B2F
:10162000984205D0904B984202D0904B984204D1FA
:101630004FF68F731A404B881A438D4B984207D050
:101640008C4B984204D04FF6FF431A40CB881A4384
:1016500002808B8883850B880385814B98420BD051
:10166000854B984208D08B4B984205D08A4B9842C4
:1016700002D08A4B984201D10B7A038601238382E0
:10168000704770B5002400220023058C4FF6FE76CB
:1016900035400584028C8388048B4FF68F752C406F
:1016A000B51E2C400D882C43751E2A400D892A43F7
:1016B0004D882A436A4DA8420BD06F4DA84208D0EE
:1016C000744DA84205D0744DA84202D0734DA84273
:1016D00013D14FF6F7752A404D892A434FF6FB7513
:1016E0002A408D882A434FF6FF652B404FF6FF5561
:1016F0002B408D892B43CD892B4383800483CD8858
:101700008586028470BD70B5002400220023058CFC
:101710004FF6EF7635400584028C8388048B48F6BB
:10172000FF752C404FF6FF452C400D884FF6FF7695
:1017300006EA05252C434FF6DF752A400D8906EA97
:1017400005152A434D8806EA05152A43444DA8424B
:1017500002D0494DA8421DD14FF67F752A404D89D0
:101760004FF6FF7606EA05152A434FF6BF752A4065
:101770008D8806EA05152A434FF6FF352B404FF2B8
:10178000FF752B408D8906EA85052B43CD8906EA36
:1017900085052B4383800483CD880587028470BD33
:1017A00070B5002400220023058C4FF6FF663540FB
:1017B0000584028C8388848B4FF68F752C404FF6FE
:1017C000FC752C400D882C434FF6FF552A400D899F
:1017D0004FF6FF7606EA05252A434D8806EA0525D9
:1017E0002A431F4DA84202D0234DA8421DD14FF2DB
:1017F000FF752A404D894FF6FF7606EA05252A43F4
:101800004FF6FF352A408D8806EA05252A434EF615
:10181000FF752B404DF6FF752B408D8906EA0515A7
:101820002B43CD8906EA05152B4383808483CD881D
:101830008587028470BD70B5002200230024058CCA
:101840004EF6FF7635400584038C8488828B48F6FB
:10185000FF752A404FF6FF452A400D8820E0000022
:10186000002C01400004004000080040000C004033
:10187000001000400014004000340140004C0140C2
:10188000005001400054014000180040001C00407E
:101890000020004000400140004401400048014059
:1018A0004FF6FF7606EA05252A434DF6FF752B40D5
:1018B0000D8906EA05352B434D8806EA05352B438D
:1018C000FA4DA84202D0FA4DA84208D14BF6FF7556
:1018D0002C408D894FF6FF7606EA85152C438480CF
:1018E0008283CD88A0F84050038470BD828B4FF274
:1018F000FF331A408283828B4FF6FF7303EA012382
:101900001A4382837047F0B50C4615460022002129
:101910000026078C4EF6FF7C07EA0C070784828BB3
:10192000018C4FF6FF7707EA043640F6FF473A404E
:101930004FF6FF7707EA05273A434FF6FF7707EAA6
:1019400003373A43D94FB8420ED0D94FB8420BD0E3
:10195000B0F1804F08D0D74FB84205D0D64FB8422B
:1019600002D0D64FB84206D14DF6FF77394046F443
:101970008057394305E047F6FF57394044F4805714
:10198000394382830184F0BD828B4FF6F3731A4092
:101990008283828B0A4382837047F0B50C461546DA
:1019A000002200210026078C4FF6FF6C07EA0C0787
:1019B0000784828B018C4FF6FF7707EA04264FF6E7
:1019C0000C773A404FF6FF7707EA03172F433A4365
:1019D000B64FB8420ED0B64FB8420BD0B0F1804FE0
:1019E00008D0B44FB84205D0B34FB84202D0B34F7D
:1019F000B84206D14FF6FF57394046F48077394355
:101A000005E04FF2FF57394044F480773943828331
:101A10000184F0BD028B4FF2FF331A400283028B28
:101A20004FF6FF7303EA01231A4302837047F0B5B0
:101A30000C461546002200210026078C4FF6EF7C4D
:101A400007EA0C070784028B018C4FF6FF7707EA41
:101A5000041640F6FF473A404FF6FF7707EA033790
:101A60003A434FF6FF7707EA05273A438F4FB842CC
:101A70000ED08F4FB8420BD0B0F1804F08D08D4FB1
:101A8000B84205D08C4FB84202D08C4FB84206D134
:101A90004FF6DF77394046F01007394305E04FF63F
:101AA0005F77394044F01007394302830184F0BD69
:101AB000028B4FF6F3731A400283028B0A430283B0
:101AC0007047F0B50C46154600220021068C4FF6F3
:101AD000FE773E400684028B018C4FF60C76324036
:101AE0007E1C06EA03162E433243704EB0420ED0DF
:101AF0006F4EB0420BD0B0F1804F08D06D4EB04267
:101B000005D06D4EB04202D06C4EB04206D14FF6B9
:101B1000FD76314044F00106314305E04FF6F5769D
:101B2000314044F00106314302830184F0BD70B5B9
:101B300005460C465D4885420ED05D4885420BD077
:101B4000B5F1804F08D05B48854205D05A488542A0
:101B500002D05A48854200D100E000BF208850B929
:101B60002389A28861882846FFF7ABFFE1882846D1
:101B7000FFF79EFF25E0208804280AD12389A28848
:101B800061882846FFF753FFE1882846FFF742FFA8
:101B900017E0208808280AD12389A288618828466E
:101BA000FFF7FBFEE1882846FFF7EEFE09E02389F8
:101BB000A28861882846FFF7A6FEE1882846FFF73D
:101BC00095FE70BD2DE9F04105460C460026012723
:101BD000608808B9022600E00026A088012801D10B
:101BE000022700E001272088A0B92389A288618804
:101BF0002846FFF766FFE1882846FFF759FF23894B
:101C00003A4631462846FFF712FFE1882846FFF79B
:101C100001FF13E02389A28861882846FFF707FFA8
:101C2000E1882846FFF7F6FE23893A4631462846E2
:101C3000FFF747FFE1882846FFF73AFFBDE8F0814C
:101C40000A884B881A438B881A43CB881A430B891E
:101C50001A434B891A438B891A43A0F844207047D2
:101C60004FF6FF71818000210180C18041800172A7
:101C700070470021018041808180C18001814181C4
:101C80008181C181704700210180418001218180D3
:101C90000021C18001817047002101804180818045
:101CA000C18001814181818170470000002C014089
:101CB000003401400004004000080040000C0040D7
:101CC00021B1028842F00102028004E002884FF64E
:101CD000FE731A400280704731B1B0F8442042F4DC
:101CE0000042A0F8442005E0B0F84420C2F30E0200
:101CF000A0F8442070471AB183890B43838102E026
:101D000083898B43838170478182704741EA020354
:101D1000A0F8483070471AB183890B43838102E0F1
:101D200083898B438381704701894FF6F872114094
:101D3000018170470A46002101894FF68F731940CF
:101D400011430181704730B504460D4629462046AF
:101D5000FFF7F0FF208940F00700208130BD2DE91A
:101D6000F04104460D4616461F46602D06D13B46FF
:101D7000012231462046FFF75AFE05E03B4601228C
:101D800031462046FFF79DFE29462046FFF7D2FF49
:101D9000208940F007002081BDE8F08130B50C4675
:101DA00000210189C9B24FF6FF7505EA03251543E5
:101DB00025432943018130BD2DE9F04105460E46FA
:101DC00017469846002443463A4631462846FFF7D0
:101DD000E5FF2C894FF6F870044044F007044FF6F5
:101DE0008F70044044F070042C81BDE8F081F0B5A0
:101DF00004460D4616461F463B46324629462046B7
:101E0000FFF7CCFF208940F480402081F0BD0185A0
:101E1000828270470A46002101884FF68F7319406D
:101E2000114301807047F0B50C4615461E4600214F
:101E3000002200230189028B038C4FF6F87739408A
:101E400021434FF6FC473A4040F201173A434FF620
:101E5000DD773B404FF6FF7707EA06172F433B43FA
:101E6000018102830384F0BD0A460021018B4FF6F5
:101E70008F7319401143018370470A460021018B7B
:101E800048F6FF7319404FF6FF7303EA0223194324
:101E9000018370470A460021818B4FF68F731940EA
:101EA0001143818370470A460021818B48F6FF73F6
:101EB00019404FF6FF7303EA0223194381837047E9
:101EC00021B1028842F08002028004E002884FF6CD
:101ED0007F731A400280704721B1828842F0040269
:101EE000828004E082884FF6FB731A40828070473C
:101EF00021B1828842F00802828004E082884FF695
:101F0000F7731A408280704721B1828842F0010243
:101F1000828004E082884FF6FE731A408280704708
:101F20000A460021018B4FF6F773194011430183D4
:101F300070470A460021018B4FF2FF7319404FF69C
:101F4000FF7303EA02231943018370470A46002105
:101F5000818B4FF6F77319401143818370470A460E
:101F60000021818B4FF2FF7319404FF6FF7303EA94
:101F700002231943818370470A460021018B4FF6E3
:101F8000FB7319401143018370470A460021018BFE
:101F90004FF6FF3319404FF6FF7303EA022319434C
:101FA000018370470A460021818B4FF6FB7319406D
:101FB0001143818370470A460021818B4FF6FF331E
:101FC00019404FF6FF7303EA0223194381837047D8
:101FD0000A460021018B4FF67F731940114301839C
:101FE00070470A460021018BC1F30E014FF6FF73C3
:101FF00003EA02231943018370470A460021818BBB
:102000004FF67F7319401143818370470A460021C0
:10201000818BC1F30E014FF6FF7303EA02231943CC
:10202000818370470A460021018C4FF6FD731940E9
:102030001143018470470A460021018C4FF6F77363
:1020400019401143018470470A460021018C4FF664
:10205000DF7319404FF6FF7303EA0213194301843B
:1020600070470A460021018C4FF67F7319404FF6E6
:10207000FF7303EA02131943018470470A460021E3
:10208000018C4FF6FF5319404FF6FF7303EA02230A
:102090001943018470470A460021018C4FF2FF73F7
:1020A00019404FF6FF7303EA022319430184704776
:1020B0000A460021018C4DF6FF7319404FF6FF735D
:1020C00003EA023319430184704730B50023012429
:1020D0008C40A3B2048C9C430484048C02FA01F566
:1020E000ADB22C43048430BD30B5002304248C40B1
:1020F000A3B2048C9C430484048C02FA01F5ADB2B3
:102100002C43048430BD70B50346002000241846DB
:10211000183001258D40ACB21D8CA5431D8409B13A
:10212000082909D100EB6100056825F070050560FC
:102130000568154305600EE00D1FC5F34E052844E4
:10214000056825F4E045056005684FF6FF7606EA68
:1021500002263543056070BD21B1028842F00202BB
:10216000028004E002884FF6FD731A400280704737
:1021700021B1028842F00402028004E002884FF696
:10218000FB731A400280704721B1828842F08002BE
:10219000828004E082884FF67F731A408280704705
:1021A00002884FF6F7731A40028002880A430280C1
:1021B000704782884FF68F731A40828082880A4364
:1021C0008280704702894FF6F8731A4002810289B3
:1021D0000A430281704702894FF67F731A400281D9
:1021E00002890A4302817047818470478185704764
:1021F000818670470187704781877047A0F840103B
:10220000704702884FF6FF431A40028002880A4353
:10221000028070470146888E70470146088F7047DC
:102220000146888F70470146B1F84000704701466B
:10223000888C70470146088D704702460020138A3B
:102240000B400BB1012000E000207047CA4302821E
:10225000704730B50246002000230024158A05EAA5
:102260000103958905EA010413B10CB1012000E0D6
:10227000002030BDCA4302827047000010B50446FA
:10228000FC48844209D101218803FEF719FF00218F
:102290004FF48040FEF714FF32E0F748844209D142
:1022A00001214804FEF719FF00214FF40030FEF72A
:1022B00014FF25E0F148844209D101218804FEF78A
:1022C0000CFF00214FF48020FEF707FF18E0EC48D8
:1022D000844209D10121C804FEF7FFFE00214FF41A
:1022E0000020FEF7FAFE0BE0E648844208D1012107
:1022F0000805FEF7F2FE00214FF48010FEF7EDFE18
:1023000010BD2DE9F04786B005460E460024A246D2
:1023100000BFA1460027B08900B100BF2F462C8A1C
:102320004CF6FF700440F08804432C82AC894EF6D2
:10233000F3100440B088318908437189084304438D
:10234000AC81AC8A4FF6FF400440B0890443AC82B4
:1023500001A8FEF72EFEC748874202D1DDF810A083
:1023600001E0DDF80CA0A88900F4004040B10AEBC0
:10237000CA0000EB0A1031684900B0FBF1F807E031
:102380000AEBCA0000EB0A1031688900B0FBF1F8D3
:102390006420B8FBF0F004012009642101FB1089DE
:1023A000A88900F4004040B1322000EBC900B0FB26
:1023B000F1F000F00700044308E0322000EB0910C0
:1023C0006421B0FBF1F000F00F0004432C8106B053
:1023D000BDE8F0874FF4E131016000218180C180C8
:1023E0004FF4806101810C2141810021818170477E
:1023F00010B502460020108A4FF2FF0318400B88E8
:102400004C8823438C882343CC8823431843108271
:1024100010BD0021018041808180C180704721B1C1
:10242000828942F40052828104E082894DF6FF7372
:102430001A4082817047F0B503460024002600252B
:10244000002040F66A17B94200D100BF1846C1F318
:10245000421401F01F06012707FA06F5012C01D1ED
:102460000C3004E0022C01D1103000E014301AB11D
:1024700007682F43076002E00768AF430760F0BDBD
:102480001AB1838A0B43838202E0838A8B4383825F
:102490007047028A4FF6F0731A400282028A0A439A
:1024A0000282704782894FF2FF731A4082818289CB
:1024B0000A438281704721B1828942F002028281FF
:1024C00004E082894FF6FD731A4082817047028AC8
:1024D0004FF6DF731A400282028A0A430282704773
:1024E00021B1028A42F48042028204E0028A4BF661
:1024F000FF731A4002827047C1F30802828070475E
:1025000001468888C0F308007047818941F00101C5
:1025100081817047028BD2B20283028B42EA012290
:1025200002837047028B02F47F420283028B0A43CC
:102530000283704721B1828A42F02002828204E045
:10254000828A4FF6DF731A408282704721B1828AF5
:1025500042F01002828204E0828A4FF6EF731A4042
:102560008282704721B1828A42F00802828204E0AE
:10257000828A4FF6F7731A408282704721B18289AE
:1025800042F40042828103E08289C2F30E0282811A
:10259000704721B1828A42F40062828204E0828A1A
:1025A0004FF2FF731A4082827047828A4FF6FB73A4
:1025B0001A408282828A0A438282704721B1828ACB
:1025C00042F00202828204E0828A4FF6FD731A40D2
:1025D0008282704702460020B1F5007F00D100BF23
:1025E00013880B400BB1012000E00020704701F47C
:1025F0000072B2F5007F00D100BFCA43028070476D
:1026000070B50246002400230025002040F66A161B
:10261000B14200D100BFC1F3421501F01F030126F2
:1026200006FA03F3012D02D19689334006E0022D0C
:1026300002D1168A334001E0968A33400C120126FB
:1026400006FA04F41688344013B10CB1012000E0FE
:10265000002070BD10B50022002340F66A14A1428C
:1026600000D100BF0A1201249440A3B2DC430480CD
:1026700010BD000000380140004400400048004008
:10268000004C0040005000400CB50020019000902C
:102690006C48006840F480306A49086000BF6948AF
:1026A000006800F4003000900198401C01900098F0
:1026B00018B90198B0F5A06FF1D16248006800F434
:1026C000003010B10120009001E00020009000983F
:1026D000012843D15C48006840F010005A49086066
:1026E0000846006820F0030008600846006840F0D3
:1026F00002000860534840685249486008464068F4
:1027000048600846406840F4806048600846406879
:1027100020F47C1048600846406840F4E8104860A7
:102720000846006840F08070086000BF45480068B7
:1027300000F000700028F9D04248406820F0030003
:10274000404948600846406840F00200486000BFC9
:102750003C48406800F00C000828F9D10CBD10B5C9
:10276000FFF792FF10BD10B53648006840F0010039
:102770003449086008464068344908403149486097
:1027800008460068324908402E490860084600683B
:1027900020F4802008600846406820F4FE0048606D
:1027A0004FF41F008860FFF7DAFF4FF000602949FF
:1027B000086010BD10B5002100200022214B5B688D
:1027C00003F00C0121B1042906D0082928D107E023
:1027D000214B224C236027E01F4B204C236023E039
:1027E000184B5B6803F47010164B5B6803F480327F
:1027F000022303EB904022B9194B4343174C23604B
:102800000DE0104B5B6803F4003323B1144B4343DA
:10281000124C236003E0104B4343104C236003E051
:102820000D4B0E4C236000BF00BF064B5B68C3F32B
:1028300003130C4CE15C094B1B68CB40074C236035
:1028400010BD000000100240002002400000FFF810
:10285000FFFFF6FE08ED00E000127A0014000020F1
:1028600000093D001800002008B501210D20FEF7E9
:102870000DFC01212748FEF71EFA03208DF8020007
:1028800010208DF803001820ADF80000694622489A
:10289000FEF740F94FF40040ADF8000069461F48CC
:1028A000FEF738F94FF400411C48FEF7E2F9082121
:1028B0001948FEF7DEF910211748FEF7DAF908BDCE
:1028C00070B504460D461648007838B929462046AA
:1028D000FEF7CFF90120124908700AE0104800788D
:1028E000012806D129462046FEF7C1F900200C49EF
:1028F000087070BD70B504460D4629462046FEF7A7
:10290000B8F970BD70B504460D4629462046FEF75D
:10291000AEF970BD00023000000C0140000801401B
:10292000280000206F48008870476F480088704773
:102930006E48008870476D48008800EB4001C1EB8D
:10294000C0106949098801EBC00070471FB501211B
:102950000846FEF7A8FB4FF47A70ADF8040064480F
:1029600000686449B0FBF1F0401E80B2ADF8000091
:1029700069464FF08040FEF747FE01218807FFF7C8
:1029800079FC012211469007FFF7B5F9012188076C
:10299000FFF796F900208DF80D008DF80E0001204C
:1029A0008DF80F001C208DF80C0003A8FDF797FC94
:1029B00000204E4908804C4908804A4908801FBDC4
:1029C00010B501218807FFF744FC98B10121880761
:1029D000FFF73CFC44480088401C80B24249088014
:1029E000B0F57A7F06DB0020088040480088401C54
:1029F0003E49088010BD70B504463F480078F0B9E4
:102A000001203D49087004EBC4004FF0E02148610B
:102A1000002088610120086100BF4FF0E0200569B7
:102A200005F0010018B105F480300028F5D0002031
:102A30004FF0E021086188612F49087009E00A2001
:102A4000B4FBF0F401E0FDF71DFC201EA4F101042D
:102A5000F9D170BD10B5002400BF03E0FDF712FCF2
:102A6000601CC4B2642CF9DB10BD70B5044622486A
:102A7000007868BB01202049087023E0B4F57A7F14
:102A800002DD4FF47A7000E02046064642F228301C
:102A900070434FF0E0214861002088610120086107
:102AA00000BF4FF0E020056905F0010018B105F402
:102AB00080300028F5D000204FF0E02108618861C7
:102AC000A01B84B2002CD9D100200B49087007E06C
:102AD00001E0FFF7BFFF201EA4F101018CB2F8D185
:102AE00070BD00002C0000202E00002030000020CF
:102AF0001400002040420F0038000020F849087000
:102B0000704700B587B001210420FEF7BFFA01210C
:102B10000846FEF7BBFA01210803FEF7B7FA0121C8
:102B2000F048FEF7C8F80420ADF8040010208DF836
:102B3000070001208DF8060001A9EB48FDF7EAFF28
:102B40000820ADF8040010208DF8070001208DF852
:102B5000060001A9E448FDF7DDFFE020ADF8040020
:102B600018208DF8070003208DF8060001A9DE4823
:102B7000FDF7D0FF1020ADF804008DF8070003200A
:102B80008DF8060001A9D848FDF7C4FF0020ADF874
:102B900008004FF48270ADF80A000020ADF80C0078
:102BA0000220ADF80E000120ADF810004002ADF893
:102BB00012000820ADF814000020ADF8160002A99C
:102BC000CA48FEF7EDFA0121C848FEF78EFB002146
:102BD000C648FEF7E9FB0021C448FEF7CBFB07B06F
:102BE00000BD10B504461021BF48FEF742F8082189
:102BF000BD48FEF73EF800BF0221BC48FEF7F9FBD6
:102C00000028F9D02146B948FEF7A0FB00BF0121FA
:102C1000B648FEF7EEFB0028F9D0B448FEF798FB63
:102C20001021B148FEF723F810BD10B5044610215D
:102C3000AD48FEF71EF80821AB48FEF718F800BFB4
:102C40000221AA48FEF7D5FB0028F9D02146A74863
:102C5000FEF77CFB00BF0121A448FEF7CAFB002859
:102C6000F9D0A248FEF774FB10219F48FDF7FFFF43
:102C700010BD10B50120FFF7B4FF1120FFF7B1FF21
:102C8000B120FFF7AEFF0120FFF7CFFF2C20FFF7A9
:102C9000CCFF2D20FFF7C9FFB220FFF7A2FF0120D4
:102CA000FFF7C3FF2C20FFF7C0FF2D20FFF7BDFF6C
:102CB000B320FFF796FF0120FFF7B7FF2C20FFF7A7
:102CC000B4FF2D20FFF7B1FF0120FFF7AEFF2C204E
:102CD000FFF7ABFF2D20FFF7A8FFB420FFF781FF20
:102CE0000720FFF7A2FFC020FFF77BFFA220FFF71E
:102CF0009CFF0220FFF799FF8420FFF796FFC12079
:102D0000FFF76FFFC520FFF790FFC220FFF769FFB5
:102D10000A20FFF78AFF0020FFF787FFC320FFF795
:102D200060FF8A20FFF781FF2A20FFF77EFFC42083
:102D3000FFF757FF8A20FFF778FFEE20FFF775FFB8
:102D4000C520FFF74EFF0E20FFF76FFF3620FFF77D
:102D500048FFC820FFF769FFE020FFF742FF02208D
:102D6000FFF763FF1C20FFF760FF0720FFF75DFF01
:102D70001220FFF75AFF3720FFF757FF3220FFF7E7
:102D800054FF2920FFF751FF2D20FFF74EFF292088
:102D9000FFF74BFF2520FFF748FF2B20FFF745FFEC
:102DA0003920FFF742FF0020FFF73FFF0120FFF728
:102DB0003CFF0320FFF739FF1020FFF736FFE1202B
:102DC000FFF70FFF0320FFF730FF1D20FFF72DFF58
:102DD0000720FFF72AFF0620FFF727FF2E20FFF727
:102DE00024FF2C20FFF721FF2920FFF71EFF2D20B5
:102DF000FFF71BFF2E20FFF718FF2E20FFF715FF10
:102E00003720FFF712FF3F20FFF70FFF0020FFF7EB
:102E10000CFF0020FFF709FF0220FFF706FF10203C
:102E2000FFF703FF2A20FFF7DCFE0020FFF7FDFE7F
:102E30000020FFF7FAFE0020FFF7F7FE7F20FFF7E4
:102E4000F4FE2B20FFF7CDFE0020FFF7EEFE002062
:102E5000FFF7EBFE0020FFF7E8FE9F20FFF7E5FEFF
:102E60003A20FFF7BEFE0520FFF7DFFE2920FFF71F
:102E7000B8FE10BD10B504211B48FDF7FAFE012075
:102E8000FFF7F3FD04211848FDF7F1FE0120FFF7DD
:102E9000ECFD10BD70B504462A20FFF7A2FE00200D
:102EA000FFF7C3FE0020FFF7C0FE0020FFF7BDFEC6
:102EB0007F20FFF7BAFE2B20FFF793FE0020FFF7DD
:102EC000B4FE0020FFF7B1FE0020FFF7AEFE9F200A
:102ED000FFF7ABFE2C20FFF784FE002510E000007A
:102EE0004410002000023000000801400030014082
:102EF0002012FFF79AFEE0B2FFF797FE681C85B23A
:102F0000B5F5A04FF4DB70BDF94908807047F94969
:102F100008807047F849088070472DE9F0478046DF
:102F20000E4617469946FFF7ECFDFFF7A3FFFFF7A4
:102F3000A0FE2C20FFF755FE3046FFF7EBFF38468A
:102F4000FFF7E5FF4846FFF7DFFF3046FFF7A2FF38
:102F5000EA4880F80080002431E000252BE02020A2
:102F600004EB8401E64A02EB4101485504EB84007E
:102F7000E44901EB800020F8157004EB8400E2497D
:102F800001EB800020F81560202004EB8401DF4A6B
:102F900002EB4101485504EB8400DD4901EB800060
:102FA00020F8157004EB8400DA4901EB800020F86A
:102FB0001560681CC5B20A2DD1DB601CC4B2142C8C
:102FC000CBDBBDE8F0870120D349087070470020B3
:102FD000D14908707047C84800887047C5480088C4
:102FE0007047C34800887047C4480078704770B580
:102FF000002420E000251AE0202004EB8401C34ACD
:1030000002EB41014855BB48008804EB8401C04AEB
:1030100002EB810121F81500B748008804EB840118
:10302000BC4A02EB810121F81500681CC5B20A2DCB
:10303000E2DB601CC4B2142CDCDBAF480088FFF775
:1030400029FF70BD10B504462046E11704EB9171CD
:103050008910A4EB8101A94A1170FFF7C8FF10BDC8
:10306000A648017801EBD1704010A1EB400008B1F7
:10307000142070471020FCE7A048017801EBD170C4
:103080004010A1EB400008B1082070470A20FCE77F
:1030900070B505460C462A20FFF7A3FD0020FFF778
:1030A000C4FD2846FFF7C1FD0020FFF7BEFD691CE7
:1030B000C8B2FFF7BAFD2B20FFF793FD0020FFF702
:1030C000B4FD2046FFF7B1FD0020FFF7AEFD611C07
:1030D000C8B2FFF7AAFD2C20FFF783FD70BD2DE9D4
:1030E000F04107460C4615461E462A20FFF779FD9B
:1030F0000020FFF79AFD3846FFF797FD0020FFF705
:1031000094FD2846FFF791FD2B20FFF76AFD002074
:10311000FFF78BFD2046FFF788FD0020FFF785FDB8
:103120003046FFF782FD2C20FFF75BFDBDE8F08104
:1031300010B5014600201AE0202200EB8003704CFD
:1031400004EB43035A546B4A128800EB80036D4C26
:1031500004EB830323F81120674A128800EB8003F5
:10316000694C04EB830323F81120421CD0B21428CD
:10317000E2DB10BD10B5002404E02046FFF7D8FFC5
:10318000601CC4B20A2CF8DB10BD10B5FFF72FFF8E
:10319000FFF7F0FF59490978481CC11700EB9171FE
:1031A0008910A0EB8101554A117010BD70B504461D
:1031B0000D4616465148007830B1012809D0022842
:1031C0000ED003281CD114E029462046FFF760FFEB
:1031D00016E0C5F17F01C8B22146FFF759FF0FE0A5
:1031E000C5F19F02D1B2C4F17F02D0B2FFF750FF08
:1031F00006E0C4F19F00C1B22846FFF749FF00BFB7
:1032000000BF3012FFF711FDF0B2FFF70EFD70BDE9
:1032100030B5024602EB82033C4C04EB43035B5C9B
:1032200002EB8204364D05EB4404645CA3421FD1DB
:1032300002EB8203364C04EB830333F8113002EBCC
:103240008204304D05EB840434F81140A3420FD1C1
:1032500002EB82032F4C04EB830333F8113002EBB3
:103260008204294D05EB840434F81140A34201D0B7
:10327000012300E00023184602EB8203204C04EBFC
:1032800043035B5C02EB8204204D05EB4404635472
:1032900002EB82031B4C04EB830333F8113002EB87
:1032A00082041B4D05EB840424F8113002EB8203E9
:1032B000154C04EB830333F8113002EB8204154DF7
:1032C00005EB840424F8113030BD0FB4F0B5C1B063
:1032D00005460E460027002449A8009001A8009A40
:1032E000489901F075FD0020009001AC6CE00000F1
:1032F0003E1000203C1000203A100020401000201A
:10330000A82000203822002058250020702100200D
:10331000C8230020E82600204110002020785B28E8
:1033200006D114F8010C5C2802D00127641C4AE085
:1033300020785D2806D114F8010C5C2802D0002703
:10334000641C40E020780D2802D020780A2801D1A2
:10335000641C38E0142D01DC0A2E01DD641C33E00E
:1033600020785C2806D160785B2802D060785D28E0
:1033700000D1641C14F8010B05EB8501FE4A02EB39
:103380004101885517B1FD48008801E0FC480088DC
:1033900005EB8501FB4A02EB810121F81600FA4892
:1033A000008805EB8501F94A02EB810121F816003E
:1033B000142D03DB0025701CC6B201E0681CC5B2E9
:1033C0000A2E00DB002600BF20780028A6D141B0DD
:1033D000F0BC5DF814FB10B50446EDA221460020B8
:1033E000FFF773FF10BD2DE9F05F0026ED48007870
:1033F00008B9BDE8F09F002468E0002562E005EB15
:103400008500E04901EB800030F8140000F4004032
:1034100008B1402000E0002005EB8501D94A02EB0D
:10342000810131F8141001F4806109B1202100E01C
:103430000021084305EB8501D24A02EB810111F816
:10344000141001F0100109B1102100E0002108431F
:1034500005EB8501D44A02EB4101085505EB8500D7
:10346000CA4901EB800030F8140000F4004008B1B4
:10347000042000E0002005EB8501CB4A02EB41016E
:10348000095D084305EB8501C04A02EB810131F873
:10349000141001F4806109B1022100E00021084309
:1034A00005EB8501B94A02EB810111F81410C1F353
:1034B0000011084305EB8501BB4A02EB41010855A9
:1034C000681C05B2102D9ADB601C04B20A2C94DB38
:1034D000B648007830B101287ED002287DD003287C
:1034E0007CD1CFE1002488E0002581E0E1B2E8B2A0
:1034F000FFF78EFE002879D0012605E0A8191028D4
:1035000000DB0BE0701C06B2A819102806DAE1B245
:10351000AA19D0B2FFF77CFE0028EFD100BF04F15A
:10352000010C4FF0010ECEEB0C1C0CF0FF0305EB71
:10353000060CCEEBCC0C0CF0FF024FEA047C4FEAF9
:103540001C614FEAC56C4FEA1C60FFF7C8FDA2463C
:103550004FF000083FE0002736E03846F91707EB48
:10356000517105EBE1010FFA81F9F91707EB517180
:10357000C910A7EBC1028021114109EB89027E4BE2
:1035800003EB420212F80A2008EB0212884B9A5C05
:10359000114039B109EB89017A4A02EB810131F816
:1035A0001A1006E009EB8901784A02EB810131F833
:1035B0001A108B464FEA2B20FFF737FB0BF0FF006A
:1035C000FFF733FB781C07B2B7EBC60FC5DB08F17A
:1035D00001000FFA80F803E013E0A1E0E1E105E06B
:1035E000B8F1100FB7DB701E284405B2681C05B295
:1035F000102DFFF67BAF601C04B20A2CFFF674AFEF
:10360000CFE1002588E0072481E0E1B2E8B2FFF7CE
:10361000FFFD002879D0012604E0A01B00D50AE0B8
:10362000701C06B2A01B06D4A21BD1B2E8B2FFF7F1
:10363000EFFD0028F1D100BF05F1010C4FF0010EA4
:10364000CEEBCC0C0CF0FF03C4F1070CB444CEEB72
:103650000C1C0CF0FF024FEAC56C4FEA1C61C4F170
:10366000070C4FEA0C7C4FEA1C60FFF738FDA946B7
:10367000002745E04FF000083DE040464FEAE87182
:1036800008EB1171A4EB21110FFA81FA4FEAE871EE
:1036900008EB11710911A8EB011209EB8901364BF6
:1036A00003EB410111F80A10102303EB0111891AF1
:1036B000491E3F4A515C80223A41114039B109EB21
:1036C0008901304A02EB810131F81A1006E009EB5A
:1036D00089012E4A02EB810131F81A108B464FEA1C
:1036E0002B20FFF7A2FA0BF0FF00FFF79EFA08F17C
:1036F00001000FFA80F8B8EB061FBEDB781C07B29A
:10370000082FB7DB701E201A04B2601E04B2002C12
:10371000BFF67BAF681C05B2142DFFF674AF40E115
:103720000924ABE00F25A4E0E1B2E8B2FFF770FD99
:1037300000287CD0012604E0A81B00D50AE0701CFC
:1037400006B2A81B06D4E1B2AA1BD0B2FFF760FDF7
:103750000028F1D100BFC4F10A0C4FF0010ECEEBEE
:103760000C1C0CF0FF03C5F10F0CB444CEEBCC0CD9
:103770000CF0FF021EE00000A82000203E100020F8
:103780003C100020382200203A100020582500204C
:103790002020202020202020202020202020202029
:1037A0000000000041100020782800204010002078
:1037B0003A000020C4F1090C4FEA0C7C4FEA1C616E
:1037C000C5F10F0C4FEACC6C4FEA1C60FFF787FC89
:1037D000A2464FF0000844E000273BE03846F917C6
:1037E00007EB5171A5EBE1010FFA81F9C8F10F0167
:1037F00009EB89026C4B03EB420212F80A2001EB41
:1038000002116A4A515CFA1707EB5272D210A7EB09
:10381000C202C2F1070280231341194041B109EBF2
:103820008901634A02EB810131F81A1007E01EE0BA
:1038300009EB89015F4A02EB810131F81A108B46CE
:103840004FEA2B20FFF7F1F90BF0FF00FFF7EDF93E
:10385000781C07B2B7EBC60FC0DB08F101000FFA06
:1038600080F8B8F1100FB7DB701E281A05B2681E79
:1038700005B2002DBFF658AF601E04B2002CBFF693
:1038800051AF8EE0132588E0002481E0E1B2E8B278
:10389000FFF7BEFC78B3012605E0A019082800DB7D
:1038A0000BE0701C06B2A019082806DAA219D1B2E2
:1038B000E8B2FFF7ADFC0028EFD100BFC5F1140C52
:1038C0004FF0010ECEEBCC0C0CF0FF0304EB060C1A
:1038D000CEEB0C1C0CF0FF02C5F1130C4FEACC6CC4
:1038E0004FEA1C614FEA047C4FEA1C60FFF7F7FBCC
:1038F000A946002745E049E04FF000083CE040467B
:103900004FEAE87108EB117104EB21110FFA81FA0B
:103910004FEAE87108EB11710911A8EB011209EBEC
:103920008901214B03EB410111F80A1002EB01114F
:103930001E4A515CC7F1070280231341194039B177
:1039400009EB89011A4A02EB810131F81A1006E0ED
:1039500009EB8901174A02EB810131F81A108B46F5
:103960004FEA2B20FFF761F90BF0FF00FFF75DF93D
:1039700008F101000FFA80F8B8EB061FBFDB781CD6
:1039800007B2082FB8DB701E204404B2601C04B2DA
:10399000082CFFF67BAF681E05B2002DBFF674AF92
:1039A00000BF00BF00BF24E5A82000203A0000208F
:1039B000382200205825002070B500241BE0CCB12F
:1039C0007F2C17D0611EBE4A52F8211052F82420D5
:1039D0000A44BB4B611C53F82110501803F082F8C5
:1039E0000646B84902F09CFF054603F05BF8B4496F
:1039F00041F82400641C802CE1DB70BD10B5044646
:103A0000012C05D10102B048FDF731F9002406E090
:103A10002CB94FF48071AC48FDF72BF9012410BD8F
:103A200010B50446012C04D10121A748FDF71FF968
:103A300003E00121A448FDF71CF910BD70B5C825AD
:103A4000002605E0012000F0D9F90444701CC6B23C
:103A5000AE42F7DBB4FBF5F4204670BD70B50A2525
:103A6000002605E0022000F0C9F90444701CC6B22B
:103A7000AE42F7DBB4FBF5F4204670BD10B5002074
:103A8000FFF7CEFF0020FFF7B9FF0120FEF7B3FFDD
:103A90000120FFF7C5FF002415E00120FEF7ABFF72
:103AA0000120FFF7ABFF0020FFF7BAFF0120FEF770
:103AB000A2FFFFF7C3FF824941F824000020FFF76F
:103AC0009DFF601CC4B2802CE7DB002016E07C491F
:103AD00051F8201001EB8101490140F6FF72B1FB62
:103AE000F2F1774A42F82010114651F82010A0292F
:103AF00002D39F2142F82010411CC8B28028E6DB87
:103B0000FFF75AFF002409E06D4810F824104FF425
:103B1000FC622046FFF74AFB601CC4B2802CF3DB3A
:103B2000002408E0664810F8241000222046FFF721
:103B30003DFB601CC4B2802CF4DB10BD08B54FF413
:103B40008070ADF8000010208DF8030003208DF880
:103B5000020069465C48FCF7DDFF0120ADF800007B
:103B600010208DF8030002208DF8020069465648A7
:103B7000FCF7D0FF0120ADF8000010208DF8030005
:103B800002208DF8020069465048FCF7C3FF08BDCB
:103B90002DE9F04FADF5037D0A258027002006E0D2
:103BA000474951F8201003AA42F82010401C8028F1
:103BB000F6DB00211CE0002015E003AA52F82030BB
:103BC0009446421C5CF8222093420BDA03AA52F876
:103BD00020B003AB421C53F8222043F82020421CA3
:103BE00043F822B0401C7A1A521E8242E5DC491C7E
:103BF000B942E0DB2E463546B00001F093F80446AA
:103C00004FF0000803A850F82590002009E02C4947
:103C100051F82010494503D944F8280008F101085B
:103C2000401CB842F3DB00200290824600BF03E054
:103C300054F820108A44401CA842F9DBB9F16E0FF9
:103C40000CDD9AFBF5F0029002980190204601F0FD
:103C500098F801980DF5037DBDE8F08F204601F03E
:103C600090F84020F6E770B5002408E0144850F8BA
:103C70002450E9B2E0B20022FFF798FA641C7F2CCE
:103C8000F4DDFFF785FF0646334611A2042102202A
:103C9000FFF71BFBFFF7A7FB70BD70B5002409E021
:103CA000074850F82450E9B2E0B24FF6FF72FFF730
:103CB0007DFA641C7F2CF3DDFFF75CFA70BD000019
:103CC000402900200000404000080140000C014055
:103CD0002564000000B591B001210846FDF7C9F93F
:103CE0004948FCF78DFD4948069049480790002057
:103CF00008901020099000200A9080200B908000EE
:103D00000C9080000D9020200E9000020F9000205B
:103D1000109006A93C48FCF715FE01213A48FCF733
:103D20003CFE01210420FDF7B1F90220ADF814009A
:103D300000208DF8170005A93648FCF7EBFE01219D
:103D40000820FDF7A3F90220ADF8140000208DF83B
:103D5000170005A93048FCF7DDFE01214802FDF7F8
:103D600095F90020009001208DF804008DF80500E1
:103D70004FF4602002900020039002208DF8100084
:103D8000694622484C38FCF73AFB4FF44040FDF7B7
:103D9000E1F80723012211461C484C38FCF7C7FB09
:103DA00007230222092119484C38FCF7C0FB0121E6
:103DB00016484C38FCF75AFB012114484C38FCF7E4
:103DC0004AFB12484C38FCF768FB00BF0F484C38E0
:103DD000FCF768FB0028F9D10C484C38FCF76CFB69
:103DE00000BF0A484C38FCF76CFB0028F9D10121D0
:103DF00006484C38FCF76FFB11B000BD0146044883
:103E0000001F50F821007047080002404C24014078
:103E1000442D002000080140000C014008B501219C
:103E20000820FDF733F903208DF8020010208DF8EB
:103E300003004FF4F070ADF8000069460948FCF744
:103E400069FE08BD70B505460E461446012C04D126
:103E500031462846FCF70BFF03E031462846FCF7C5
:103E600008FF70BD000C014008B501210420FDF7DA
:103E70000DF903208DF8020048208DF803004FF45F
:103E8000F050ADF8000069464748FCF743FE08BD16
:103E900070B504460D4629462046FCF7CEFE70BD9F
:103EA00010B54FF400714048FFF7F2FF88B14FF4AE
:103EB00080613D48FFF7ECFF58B14FF400613A488C
:103EC000FFF7E6FF28B14FF480513748FFF7E0FFD6
:103ED00020B964227821354800F0A5FB10BD10B54B
:103EE000FFF748F94FF400712F48FFF7D1FF50B1A9
:103EF0002FA202210846FFF7E8F9FFF774FA102114
:103F00003148FEF7FFFC4FF480612748FFF7C0FF00
:103F100050B12EA202210846FFF7D7F9FFF763FA46
:103F200008212948FEF7EEFC4FF400611E48FFF718
:103F3000AFFF58B12BA202210846FFF7C6F9FFF7E1
:103F400052FA4FF400411848FEF7DCFC4FF4805160
:103F50001548FFF79DFF30B128A202210846FFF760
:103F6000B4F9FFF740FA4FF480510F48FFF790FF84
:103F7000C0B94FF400610C48FFF78AFF90B94FF4C5
:103F800000610948FFF784FF60B94FF4805106488B
:103F9000FFF77EFF30B91FA202210846FFF795F90F
:103FA000FFF721FA10BD000000080140C86B0008AF
:103FB00050696E2039207265636569766520736982
:103FC000676E616C00000000000C014050696E20BB
:103FD00031302072656365697665207369676E614B
:103FE0006C00000050696E20313120726563656994
:103FF0007665207369676E616C00000050696E2001
:1040000031322072656365697665207369676E6118
:104010006C0000006E6F207369676E616C207265C2
:10402000636569766564000000B589B0012140F6DA
:104030000900FDF72BF810208DF8230003208DF8E0
:1040400022004FF4A040ADF8200008A9B648FCF7C4
:1040500061FD18208DF8230003208DF822004FF415
:104060002040ADF8200008A9AF48FCF753FD002020
:10407000ADF81600ADF81A008DF81C004720ADF819
:104080001400C820ADF8180005A9A848FDF7BCFA2F
:104090000020ADF80C00ADF80E006020ADF8040073
:1040A0000020ADF81000ADF812000120ADF80600B8
:1040B0000420ADF808000020ADF80A0001A99B48D3
:1040C000FDF7DFFA01219948FDF72AFF01A997487A
:1040D000FDF766FB01219548FDF738FF0121934864
:1040E000FDF7EEFE01219148FDF7EAFD00218F4822
:1040F000FEF77AF801218D48FDF7EEFD09B000BD0D
:1041000070B504460D461646012C13D145B901037E
:104110008548FCF7ACFD31468448FEF769F81EE09F
:104120004FF480518048FCF7A4FD31467F48FEF7EC
:104130005FF814E0022C12D145B961037A48FCF70C
:1041400096FD31467948FEF757F808E04FF4804174
:104150007548FCF78EFD31467448FEF74DF870BD8A
:1041600010B5642200210120FFF7CAFF642200215C
:104170000220FFF7C5FF4FF4FA60FEF776FC00223D
:1041800011460120FFF7BCFF642200210220FFF747
:10419000B7FF4FF4FA60FEF768FC642200210120AB
:1041A000FFF7AEFF642200210220FFF7A9FF4FF4C2
:1041B0007A60FEF75AFC002211460120FFF7A0FFAB
:1041C000002211460220FFF79BFF10BD10B50446E8
:1041D000002C13DD142C11DA002211460120FFF708
:1041E0008FFF642200210220FFF78AFF50A20521E1
:1041F0000846FFF76AF8FFF7F6F82AE0142C13DDFB
:10420000282C11DA002211460120FFF779FF4B22FA
:1042100000210220FFF774FF45A205210846FFF7A1
:1042200054F8FFF7E0F814E0282C12DD362C10DAF1
:10423000002211460120FFF763FF462200210220E1
:10424000FFF75EFF3AA205210846FFF73EF8FFF7A9
:10425000CAF84A2C13DD642C11DA642200210120F3
:10426000FFF74EFF002211460220FFF749FF33A25D
:1042700005210846FFF729F8FFF7B5F828E0642C78
:1042800013DA782C11DD4B2200210120FFF738FFD3
:10429000002211460220FFF733FF28A2052108461D
:1042A000FFF713F8FFF79FF812E0782C10DD462295
:1042B00000210120FFF724FF002211460220FFF712
:1042C0001FFF1EA205210846FEF7FFFFFFF78BF830
:1042D00010BD70B505460C46281B1E2817DA322281
:1042E00000210120FFF70CFF322200210220FFF7FE
:1042F00007FF4FF47A70FEF7B8FB00221146012049
:10430000FFF7FEFE002211460220FFF7F9FE70BD06
:1043100010B5002201210846FFF7F2FE00221146E7
:104320000220FFF7EDFE10BD000C0140002C014003
:104330005475726E206C6566740000005475726E60
:10434000207269676874000010B50021CB48FDF742
:1043500055FF10BD00B589B00020C94908804EF650
:10436000E660488002200FE0411EC54A32F8111075
:1043700042F21072514342F6631291FBF2F1C04ACD
:1043800022F81010411CC8B20D28EDDB01210820D5
:10439000FCF77CFE03208DF8220018208DF8230006
:1043A0004FF40070ADF8200008A9B648FCF7B2FB46
:1043B00001210420FCF777FE01210846FCF766FE88
:1043C0000020ADF816004FF48070ADF81A00AE482A
:1043D0000068AE49B0FBF1F0401E80B2ADF81400A9
:1043E000AB480088ADF8180005A9A448FDF70CF902
:1043F0000020ADF80C006020ADF80400A54800785E
:10440000ADF80A000120ADF8060001219B48FDF738
:1044100057FD01219948FDF753FC01A99748FDF785
:104420000AFAFFF791FF09B000BD10B5984800885F
:1044300010B9FFF789FF0CE0954800889549097885
:104440004843642190FBF1F084B221468B48FDF78C
:10445000D5FE10BD10B502460B4600211AB1501C06
:1044600008B10C2A01DD002010BD854830F812107B
:1044700004E0084601EBD074C4F34F01181EA3F109
:104480000104E3B2F5D10846EEE710B504468048D2
:1044900004800088002805DD7D4801887748FDF705
:1044A000A5FE01E0FFF750FF10BD38B57A4800784F
:1044B000002803DC79480078002826DD7848008849
:1044C000401E7749088008460088002878D1724845
:1044D000007808B9012000E000206F490870084604
:1044E000007810B1FFF7A1FF01E0FFF72DFF6D4845
:1044F00000886B49088068480078002860D16748C8
:104500000078401E654908705AE067480078002826
:1045100056D0664800686649098800EB410000886B
:1045200000909DF90000401C20B900205E490870F1
:10453000FFF70AFF5F480088002805DD5D48008816
:10454000401E5C4908803AE05B4800885949088071
:104550005A48008898B15A48007808B9012000E00C
:104560000020574908700846007830B15348008849
:1045700050490880FFF7E8FE01E0FFF756FF4F487B
:10458000008810B14E48007810B14C480088B0B98E
:1045900047480088401C80B2454908804349096863
:1045A00001EB4000008800909DF801109DF900008B
:1045B000FFF750FF0446FFF768FFFFF736FF00BF25
:1045C00038BD002038490870704770B505460C4664
:1045D00005B104B970BD31480570314804803148D7
:1045E000048001202C490870FFF71FFFFFF7E9FF47
:1045F00000BFEFE7642800DD64202649087070479B
:104600002DE9F04106460F4614461D462946204630
:10461000FFF720FF8046FFF738FF39463046FFF7A7
:10462000D4FFBDE8F0812DE9F04104460D46164661
:104630000CB9BDE8F08100201749087017490870CF
:104640000120194908700020194908801A4805807E
:104650001848058019480680002019490870134839
:104660000460617894F90000FFF7F4FE0746FFF755
:104670000CFFFFF7DAFE00BFDBE700000008004098
:10468000842D0020000C01401400002040420F0047
:10469000501000204F100020481000204E10002025
:1046A0004C1000204A10002052100020541000200E
:1046B000581000205C1000205A1000205E100020CE
:1046C0006010002030B585B004460D46974951F87A
:1046D0002410974A52F82420114341F0010001218F
:1046E000FCF7D4FC34B9934951F824000121FCF7BC
:1046F000CDFC05E08F4951F824000121FCF7D3FCE3
:1047000018208DF813008C4830F81400ADF8100014
:1047100003208DF81200894951F8240004A9FCF700
:10472000F9F904208DF81300854830F81400ADF82D
:104730001000844951F8240004A9FCF7EBF9009516
:104740000020ADF80400ADF80600ADF80800ADF8A3
:104750000C000C20ADF80A007B4951F82400694692
:10476000FDF7CFFD784951F82400012240F2255190
:10477000FDF761FE744951F824000121FDF74FFE59
:1047800005B030BD38B5044600214FF00060FBF79E
:10479000D8FD6E4810F814008DF8000001208DF847
:1047A00001008DF802008DF803006846FBF797FDC5
:1047B000654951F82400012240F22551FDF73BFEE6
:1047C00038BD634908707047FF2061490870704721
:1047D00070B504460D4600BF5B4951F824004021E6
:1047E000FDF7F8FE0028F7D0574951F82400294674
:1047F000FDF782FE70BD0FB430B5C1B0054646A8C6
:1048000040906846409A459900F0E2FA00204090B6
:104810006C4604E014F8011B2846FFF7D9FF207806
:104820000028F7D141B030BC5DF814FB10B5044648
:1048300000BF454951F824004021FDF7CBFE002878
:10484000F7D0414951F82400FDF75AFEC0B210BD1F
:1048500070B505460C462DB93E48046000203E491F
:1048600008700DE0012D05D13C48046000203C4952
:10487000087004E0AF223BA13CA000F0BBFA00BFEF
:104880002846FFF77FFF70BD10B540F2255138482C
:10489000FDF7B6FE78B13048007838B93448FDF7F6
:1048A0002FFEC4B220462B490968884740F22551A3
:1048B0002F48FDF7CFFE10BD10B540F225512D4811
:1048C000FDF79EFE78B12648007838B92948FDF7F3
:1048D00017FEC4B2204621490968884740F2255195
:1048E0002448FDF7B7FE10BD70B504460D461848C4
:1048F00090F90000401C08B9204670BD00BF124965
:10490000134A92F9002051F822004021FDF762FE7F
:104910000028F4D0E1B20C4A0D4B93F9003052F864
:104920002300FDF7E9FD2046E7E70000E06E000800
:10493000EC6E0008D46E0008F86E000880100020AD
:10494000FE6E00088C10002074100020046F000818
:104950009810002068100020701000206C100020BB
:1049600071100020756172742E6300003000000029
:10497000003801400048004010B504462046682C2D
:1049800071D012DC61285DD008DC31282ED03228AD
:1049900030D0382814D039287CD11CE0642840D08D
:1049A000662878D06728F7D176E06D380C2871D268
:1049B000DFE800F09BABDCDCDC985ADCDCCD245D6E
:1049C0006420BB490860BBA201210846FEF77DFCBC
:1049D000FEF709FDCBE0BE20B5490860B6A2012173
:1049E0000846FEF772FCFEF7FEFCC0E00120B3496A
:1049F0000860BCE00220B1490860B8E0AC4800881B
:104A000082B201210846FFF77BFBA948008882B2E9
:104A100000210220FFF774FB4FF47A70FEF725F8AF
:104A2000A5E0A348008882B201210846FFF768FB91
:104A3000002201210220FFF763FB4FF47A70FEF79A
:104A400014F894E0002201210846FFF759FB98482A
:104A5000008882B200210220FFF752FB4FF47A70E7
:104A6000FEF703F883E02AE0FFF752FC7FE090486E
:104A7000008882B200210120FFF742FB8C480088A9
:104A800082B201210220FFF73BFB4FF47A70FDF761
:104A9000ECFF6CE06AE04BE08548008882B20121BF
:104AA0000846FFF72DFB8248008882B201210220D0
:104AB000FFF726FB4FF47A70FDF7D7FF57E07C48ED
:104AC000008882B200210120FFF71AFB7848008895
:104AD00082B200210220FFF713FB4FF47A70FDF73A
:104AE000C4FF44E0FFF7FBF941E0FEF743FB00227F
:104AF0004FF480717248FFF7A5F972A202210846AF
:104B0000FEF7E3FBFEF76FFC31E0FEF733FB01221B
:104B100011026B48FFF796F96CA202210846FEF7D6
:104B2000D4FBFEF760FC4FF47A70FDF79EFF1EE0A9
:104B3000FEF720FB012220216148FFF783F968A2DC
:104B400002210846FEF7C1FBFEF74DFC0FE0FEF721
:104B500011FB002220215A48FFF774F963A20221B9
:104B60000846FEF7B2FBFEF73EFC00E000BF00BFC8
:104B700010BDFFF7AFF8FDF7E9FEFEF7DFFFFFF727
:104B800053FAFFF771F9FFF749F94AF65553002236
:104B90004FF6FF711046FEF7C0F94FF41651012091
:104BA000FFF790FDAFF22F210120FFF751FE7EE0CD
:104BB0004248006801280AD1002201210846FFF777
:104BC0009FFA002211460220FFF79AFA6FE03B4855
:104BD000006802286BD1FDF7A8FE0646322096FB3E
:104BE000F0F100FB1160002860D1FEF747FFFFF7EE
:104BF0003AF8FEF7CDFF0446322C1CDD482C1ADAB9
:104C000001203D49086008460068854213D0012014
:104C100008603AA20A210320FEF757FBFEF7E3FBE8
:104C2000642201210846FFF76BFA6422002102206A
:104C3000FFF766FA0125332C18DA02202E490860A6
:104C400008460068854211D030A206210320FEF7F5
:104C50003CFBFEF7C8FB002201210846FFF750FA93
:104C6000782200210220FFF74BFA0225472C18DD9D
:104C700003202149086008460068854211D026A219
:104C800006210320FEF721FBFEF7ADFB7822012170
:104C90000846FFF735FA002211460220FFF730FAE6
:104CA0000325FEF7FAFFFEF79EFB00BF00BF7FE77C
:104CB000A020002031303000313930009C2000200D
:104CC000000C01406C657420676F00006C656674B1
:104CD000206772616220666F722031207365630005
:104CE000526169736520466C6167000050757420DD
:104CF000446F776E00000000A4200020676F2073CF
:104D000074726169676874206C6120007475726EDA
:104D1000206C6566742000007475726E207269677D
:104D20006874200070B5064600F0A8F8056806F122
:104D30000B0020F00704B4429CBF002070BD2B463E
:104D40006A68BAB11068A04210D304F10801884221
:104D50003CBF5068586007D3516810194160116812
:104D6000091B016058601460101D70BD1346526825
:104D7000002AE7D12146284600F088F80028DED135
:104D800070BD70B50446051F00F078F80068002C6F
:104D900014BF446870BD002C18BFAC423CBF204615
:104DA0006468F8D301680A18AA4218BF456003D1A5
:104DB0002A6805461144016028684119A1421CBFB8
:104DC0006C6070BD6168696021680844286070BDCE
:104DD0001CB50C46064B7B4469460090204600F00B
:104DE00056F904460020694600F064F920461CBDCF
:104DF000DB0200000EB5054614460E4613A000F077
:104E00004CFB284600F049FB16A000F046FB30465C
:104E100000F043FB15A000F040FB00218DF80B10C3
:104E20000A210DF10A008DF80A1008E094FBF1F256
:104E300001FB124294FBF1F4303200F8012D002CFA
:104E4000F4DC00F02AFB00F01DFB00002A2A2A20D7
:104E5000617373657274696F6E206661696C6564F5
:104E60003A2000002C2066696C6520002C206C69BB
:104E70006E6520007047704770470000004870471B
:104E8000A82D0020704770477047704738B504461A
:104E90000A4600206946AFF30080002808BF38BDED
:104EA00002460099204600F013FB012038BD012086
:104EB00000F0A5BFF8B5AFF30080054600200C4612
:104EC000102000BF0646A819A0420DD932466946F7
:104ED0000020AFF30080070008BF00F090FF0098AB
:104EE000A04218BF0546C419FFF7C8FF0560074672
:104EF000F01D20F007004619284600F00AF8B442D9
:104F000008BFF8BDA21B31463868BDE8F84000F084
:104F1000DFBA00210160C0E901107047102070471E
:104F200070B5044685690068C10601D5302600E0E9
:104F30002026C00707D070BDD4E901213046904734
:104F4000206A401C20626D1EF6D570BD70B5044607
:104F500085690078C00707D170BDD4E90121202000
:104F60009047206A401C20626D1EF6D570BD09680E
:104F70004A0501D540B27047C905FCD500B270475B
:104F800009684A0501D5C0B27047C905FCD580B291
:104F9000704770B50C460546012A05D02878800672
:104FA00000D5EA69002302E0012305E05B1C93427F
:104FB00002D2E05C0028F9D1A869E618C01AA861FD
:104FC000286A184428622846FFF7AAFF04E0D5E9BA
:104FD000012114F8010B9047B442F8D32846FFF79B
:104FE000B5FF70BD2DE9F041064600241068752913
:104FF000314616A510D0FFF7BAFF002802DA40426A
:1050000013A507E031688A0701D512A502E0490718
:1050100004D511A5012401E0FFF7B2FF00210A2207
:1050200006F1240709E0B0FBF2FCB0FBF2F302FB4F
:105030001C00303078541846491C0028F3D1234610
:105040002A463046BDE8F04100F0A1BA0000000059
:105050002D0000002B0000002000000011680268F5
:10506000006A530501D508700AE0D30501D5088010
:1050700006E0130603D5C217C1E9000200E008608C
:105080000120704701694A1C02610878704700B529
:105090008FB0CDE901310021059105497944CDE971
:1050A00003101146684600F029F90FB000BD00005A
:1050B000E5FFFFFF0A6802F8010B0A607047000075
:1050C0002DE9FF5F15468A460446DFF8AC80F844B8
:1050D0000027D8E900103E46CDE9001010E03AF86C
:1050E00016106A4602A800F063FE411C07D0217822
:1050F000890603D5E269391891420DD80744761C18
:105100002078800602D5E069B84205DDAE42E6DBD4
:105110003AF816000028E2D1A069C01BA061204621
:10512000FFF7FEFED8E90010CDE90010002017E0DF
:105130003AF818106A4602A800F03AFEB0F1FF3FB4
:1051400081460BD000250DF1080B05E0D4E90121C3
:105150001BF8050090476D1C4D45F7D308F1010081
:10516000B0428046E4DB206A384420622046FFF7E4
:10517000EDFEBDE8FF9F00003A1E00002DE9F04162
:105180008046D21D22F007020025D2E90002F5294F
:1051900015A614D0011E72F1000106DA0023D0EB2F
:1051A000030063EB020211A608E0D8F800108B0799
:1051B00001D50FA602E0490701D50EA6012511462B
:1051C000002408F1240704E000F09CF930323A553D
:1051D000641C50EA0102F7D12B4632462146404674
:1051E000BDE8F04100F0D3B9000000002D00000040
:1051F0002B0000002000000030B4002100F1240446
:1052000008E002F00705D208303542EA4372DB08B5
:105210006554491C52EA0305F3D10468002310A227
:10522000250708D504F020040C4304D0C4690123E9
:105230000CA2641EC46130BC00F0A9B910B50446CC
:1052400021461068FFF79CFE02462046BDE810404C
:105250000023D1E7D21D22F00701D1E90023CBE7DB
:105260000000000030000000F0B40D460188090580
:1052700002D5214C7C4402E01F4C7C440E340021BA
:1052800000F1240608E002F00F071209E75D42EA88
:1052900003721B097754491C52EA0307F3D10278C1
:1052A0000023120704D5702D06D009B10223113452
:1052B0002246F0BC00F06BB901231034F8E770B55A
:1052C00004460D4621461068FFF75AFE024629465D
:1052D0002046BDE870400023C6E7D21D22F0070338
:1052E000D3E90023C0E70368126843F0200303609A
:1052F0000823C3610023B7E79C1C00002DE9F05F81
:10530000894604464FF0000ADFF874B1FB44C0F848
:1053100020A02046E1688847002874D0252806D0C0
:10532000D4E901219047206A401C2062F1E7002661
:105330005F462046E16888472028054607DB312D77
:1053400005D2781910F8200C08B10643F1E7B00730
:1053500001D526F00406C4F81CA00027C4F818A044
:105360002A2D09D0284601F0A8FA38B304EB8708A3
:10537000303DC8F8185019E059F8041B204604EBDA
:1053800087029161E1688847012F054618D1E069DD
:10539000002820DA26F020061DE0D8F8180000EBDF
:1053A000800005EB40003038C8F818002046E1685E
:1053B0008847054601F081FA0028EED1012F0AD076
:1053C0002E2D08D12046E16888477F1C0546022F14
:1053D00046F02006C4DBA069002803DA404246F00C
:1053E0000106A061F00701D026F010066C2D0BD04D
:1053F000682D09D04C2D39D06A2D35D0742D35D07B
:105400007A2D33D016E038E0E1682F4620468847F1
:10541000B842054609D16C2F26D04FF48060E16870
:10542000064320468847054604E06C2F1AD04FF407
:10543000807006430DB3A5F14100192802D820352C
:1054400046F400664A462946204626604E46FAF74C
:10545000ABFE80B101280BD0F61D26F0070000F14D
:10546000080956E74020E4E78020D8E70020D6E787
:1054700006F104094DE7284652E7206ABDE8F09F8F
:105480002C1C000010B5002000F0B2FCFAF7E8FE7A
:10549000BDE81040012000F011B810B5044602E04C
:1054A000641C00F004F820780028F9D110BD08B57C
:1054B00069468DF800000320ABBE08BD01491820E5
:1054C000ABBEFEE72600020000487047A02D00207A
:1054D000034640688C46002818BF88423CBF0346FC
:1054E0004068F8D318681844884207D00CF10300CC
:1054F00020F00700001D411A521A0146081D0A60DB
:10550000FFF73FBC30B5B0F10A024FEA900E71F1DF
:1055100000034EEA817EB0EB0E0061EB91014FEA91
:10552000101E4EEA017E10EB0E0041EB11114FEA06
:10553000102E4EEA016E10EB0E0041EB11214FEAE6
:10554000104E4EEA014E10EB0E0041EB1141401897
:1055500041F100014FEAD00040EA41704FEAD10129
:1055600010EB80054FEA810444EA907444EB010497
:105570006D1944EB0404521BA3414FF0000348BFD4
:105580000A3200D530BD401C41F1000130BD2DE98B
:10559000F0470D4699469246044600F124080168FA
:1055A000880604D5E06921F01001216000E00120A7
:1055B000A84201DD471B00E00027A1697A1902EB30
:1055C0000900081AA0612078C00602D42046FFF71F
:1055D000A7FC002608E0D4E901211AF8060090474C
:1055E000206A401C761C20624E45F4DB2078C00601
:1055F0000AD52046FFF794FC06E0D4E901213020CB
:105600009047206A401C2062381EA7F10107F4DC95
:1056100007E0D4E9012118F805009047206A401CF2
:105620002062281EA5F10105F3DC2046FFF78EFC61
:105630002078000602D50220BDE8F0870120FBE7B4
:1056400070472DE9FF4F0C461E464FF0FF378BB0D9
:10565000D2E90001DDF860800A908A46C1F30A555C
:1056600005B93D46002108464FF00000BAF1000F91
:1056700000F4400005DA00EB80004FF4400101EA3D
:1056800050004FEA9059B9F1010F00DDB9460A9870
:1056900050EA4A000ED044F61050A5F2FF354543BB
:1056A0002F14B8F1000F1ED07542291E1EDDC9F15E
:1056B00000021CE0B8F1010F4FF0000001D03021D2
:1056C00003E0F24305E02154401CB042FBDB3046CE
:1056D0000022002121540B99C1F80880C1E9002063
:1056E0000FB0BDE8F08FBD1B6D1CDEE74A4600DA47
:1056F000694206A800F0FCFB06AB93E8070003AB89
:1057000083E8070050460A9900F008FD8DE807007D
:10571000A0F500501F3800900398002D09DD42F2DB
:105720001F014A46084403A90390684600F067FF3A
:1057300008E0A0F500504A461F3803A903906846C8
:1057400000F071FF8DE807000004000C03D04FF05B
:10575000FF30410800E01046B8F1000F03D00022EE
:10576000009215461EE0751E05D4FFF7CBFE3032C1
:1057700062556D1EF9D5B3460122084302D00022BE
:105780007F1C04E02078302801D100227F1E002AEF
:10579000099786D01DE0112D07DAFFF7B3FE3032EE
:1057A00062556D1C50EA0102F5D1084302D0009801
:1057B000C8B10EE00021681E05E0235C625C635402
:1057C0002254401E491C8142F7DBAB46A81B401EF9
:1057D0000990002004F80B000B98099AC0F8088083
:1057E000C0E9002B7CE711264FF0000859E72DE9AE
:1057F000F04F88460446D21D22F0070191B0D1E94E
:105800000001CDE90A0101F044F802460B98C00FEF
:1058100001D02D2007E02068810701D52B2002E070
:10582000202101EAC000032A099001D0072A05DBE4
:1058300003464146204600F01BFB0BE12078800622
:1058400001D5E06900E00620B8F1650F814606D079
:10585000B8F1660F18D0B8F1670F70D131E00020B1
:10586000B9F1110F009001DB112301E009F10103EF
:105870000AAA01A90CA8FFF7E4FEDDE90C700026D6
:1058800009F10105834647E001204B4600904FF0A7
:1058900000470AAA01A90CA8FFF7D3FEDDE90DB065
:1058A0000C995D46002610B909F101000D18B9EBFD
:1058B000050003D4C0F1FF3609F10105A5EB09008D
:1058C0002BE0B9F1010F01DA4FF001090020B9F125
:1058D000110F0090484601DD112300E003460AAA9B
:1058E00001A90CA8FFF7ADFEDDE90C704D460026BE
:1058F0008346207800070AD4AB4500DA5D4601A84C
:10590000012D04DD411911F8011C302907D04F4544
:1059100002DA17F1040F04DA012082460FE06D1E4F
:10592000EEE7002F02DCED1B3E4403E0781CA842AA
:1059300000DD7D1CB81B00F1010A4FF00047207804
:10594000000703D4AA4501DB4FF0FF3A0021B7F16D
:10595000004F0DF143088DF8431024D002202B2373
:10596000002F01DA7F422D230A21021EA0F101003F
:1059700000DC5FB197FBF1FC97FBF1F201FB1C7CB3
:1059800017460CF1300C08F801CDEEE7A8F1010044
:1059900003702188090501D5452100E06521A0F1AA
:1059A000010800F8011C09980FA9A1EB0807FF1DC9
:1059B00000B10120411901EBEA70A1693844081ACD
:1059C000401EA0612078C00602D42046FFF7A8FA46
:1059D000099828B1D4E901219047206A401C20622F
:1059E0002078C00622D52046FFF79AFA1EE0002E46
:1059F00004DBB34502DD01A8805D00E03020D4E97E
:105A000001219047206A401C2062761CAAF1010007
:105A10005FEA000A0AD100F027FAC0680168405C1A
:105A2000D4E901219047206A401C2062281EA5F17C
:105A30000105DCDC07E0D4E9012118F8010B9047EF
:105A4000206A401C2062381EA7F10107F3DC2046C3
:105A5000FFF77CFA032011B043E600002DE9F04F78
:105A600004460D46D21D22F0070089B0D0E900920D
:105A700048461746394600F00CFF0246F80F01D0A1
:105A80002D2307E02068810701D52B2302E0202188
:105A900001EAC0038DF820300BB1012000E00020A6
:105AA000032A824601D0072A04DB2946204600F05B
:105AB000DFF93DE12078800601D40D2500E0E5699D
:105AC000C7F30A560D2D49DA00214FEA175B084645
:105AD0004FF00000002F00F4400007DA00EB8000D8
